{
	"data": {
		"bytecode": {
			"linkReferences": {},
			"object": "608060405234801561001057600080fd5b50336000806101000a81548173ffffffffffffffffffffffffffffffffffffffff021916908373ffffffffffffffffffffffffffffffffffffffff1602179055506113be806100606000396000f3fe6080604052600436106100745760003560e01c80638642269e1161004e5780638642269e146100f65780638da5cb5b14610112578063dab510261461013d578063ed90c7b7146101665761007b565b8063235a1155146100805780633aaa74b2146100a95780637acc0b20146100b35761007b565b3661007b57005b600080fd5b34801561008c57600080fd5b506100a760048036038101906100a29190610be6565b61018f565b005b6100b16102e3565b005b3480156100bf57600080fd5b506100da60048036038101906100d59190610cab565b610343565b6040516100ed9796959493929190610d75565b60405180910390f35b610110600480360381019061010b9190610cab565b6104a2565b005b34801561011e57600080fd5b506101276106cc565b6040516101349190610e33565b60405180910390f35b34801561014957600080fd5b50610164600480360381019061015f9190610e4e565b6106f0565b005b34801561017257600080fd5b5061018d60048036038101906101889190610cab565b61088f565b005b60008054906101000a900473ffffffffffffffffffffffffffffffffffffffff1673ffffffffffffffffffffffffffffffffffffffff163373ffffffffffffffffffffffffffffffffffffffff161461021d576040517f08c379a000000000000000000000000000000000000000000000000000000000815260040161021490610f74565b60405180910390fd5b60006001600088815260200190815260200160002090508581600101908161024591906111a0565b508481600201908161025791906111a0565b50838160030181905550828160060181905550818160040160006101000a81548160ff02191690831515021790555060016000888152602001908152602001600020507e7b02ff315619902246f02cd37abcd62f9a18c0a187b413d643be28c24f76c58787878787876040516102d296959493929190611272565b60405180910390a150505050505050565b60008054906101000a900473ffffffffffffffffffffffffffffffffffffffff1673ffffffffffffffffffffffffffffffffffffffff166108fc479081150290604051600060405180830381858888f1935050505061034157600080fd5b565b600160205280600052604060002060009150905080600001549080600101805461036c90610fc3565b80601f016020809104026020016040519081016040528092919081815260200182805461039890610fc3565b80156103e55780601f106103ba576101008083540402835291602001916103e5565b820191906000526020600020905b8154815290600101906020018083116103c857829003601f168201915b5050505050908060020180546103fa90610fc3565b80601f016020809104026020016040519081016040528092919081815260200182805461042690610fc3565b80156104735780601f1061044857610100808354040283529160200191610473565b820191906000526020600020905b81548152906001019060200180831161045657829003601f168201915b5050505050908060030154908060040160009054906101000a900460ff16908060050154908060060154905087565b6000600160008381526020019081526020016000206040518060e0016040529081600082015481526020016001820180546104dc90610fc3565b80601f016020809104026020016040519081016040528092919081815260200182805461050890610fc3565b80156105555780601f1061052a57610100808354040283529160200191610555565b820191906000526020600020905b81548152906001019060200180831161053857829003601f168201915b5050505050815260200160028201805461056e90610fc3565b80601f016020809104026020016040519081016040528092919081815260200182805461059a90610fc3565b80156105e75780601f106105bc576101008083540402835291602001916105e7565b820191906000526020600020905b8154815290600101906020018083116105ca57829003601f168201915b50505050508152602001600382015481526020016004820160009054906101000a900460ff16151515158152602001600582015481526020016006820154815250509050806060015134101561063c57600080fd5b60008160c001511161064d57600080fd5b60018160c0015161065e9190611310565b60016000848152602001908152602001600020600601819055503373ffffffffffffffffffffffffffffffffffffffff167fb075ea2edb1309fd8a95ab954b3dfff7b7aa4ff252683f730a1ee7baa387aacf83346040516106c0929190611344565b60405180910390a25050565b60008054906101000a900473ffffffffffffffffffffffffffffffffffffffff1681565b60008054906101000a900473ffffffffffffffffffffffffffffffffffffffff1673ffffffffffffffffffffffffffffffffffffffff163373ffffffffffffffffffffffffffffffffffffffff161461077e576040517f08c379a000000000000000000000000000000000000000000000000000000000815260040161077590610f74565b60405180910390fd5b60006040518060e00160405280898152602001888152602001878152602001868152602001851515815260200184815260200183815250905080600160008a81526020019081526020016000206000820151816000015560208201518160010190816107ea91906111a0565b50604082015181600201908161080091906111a0565b506060820151816003015560808201518160040160006101000a81548160ff02191690831515021790555060a0820151816005015560c082015181600601559050507f945e9f38da0962374f833a71daf9e8abadef8bcead6f0b8e6f0c31cc7dbd57a28888888888888860405161087d9796959493929190610d75565b60405180910390a15050505050505050565b60008054906101000a900473ffffffffffffffffffffffffffffffffffffffff1673ffffffffffffffffffffffffffffffffffffffff163373ffffffffffffffffffffffffffffffffffffffff161461091d576040517f08c379a000000000000000000000000000000000000000000000000000000000815260040161091490610f74565b60405180910390fd5b6001600082815260200190815260200160002060008082016000905560018201600061094991906109c1565b60028201600061095991906109c1565b60038201600090556004820160006101000a81549060ff02191690556005820160009055600682016000905550507fb9cf51de0e349fe22cdf4be36898ccd86f49c14f931aaf57f3c2d617821d1118816040516109b6919061136d565b60405180910390a150565b5080546109cd90610fc3565b6000825580601f106109df57506109fe565b601f0160209004906000526020600020908101906109fd9190610a01565b5b50565b5b80821115610a1a576000816000905550600101610a02565b5090565b6000604051905090565b600080fd5b600080fd5b6000819050919050565b610a4581610a32565b8114610a5057600080fd5b50565b600081359050610a6281610a3c565b92915050565b600080fd5b600080fd5b6000601f19601f8301169050919050565b7f4e487b7100000000000000000000000000000000000000000000000000000000600052604160045260246000fd5b610abb82610a72565b810181811067ffffffffffffffff82111715610ada57610ad9610a83565b5b80604052505050565b6000610aed610a1e565b9050610af98282610ab2565b919050565b600067ffffffffffffffff821115610b1957610b18610a83565b5b610b2282610a72565b9050602081019050919050565b82818337600083830152505050565b6000610b51610b4c84610afe565b610ae3565b905082815260208101848484011115610b6d57610b6c610a6d565b5b610b78848285610b2f565b509392505050565b600082601f830112610b9557610b94610a68565b5b8135610ba5848260208601610b3e565b91505092915050565b60008115159050919050565b610bc381610bae565b8114610bce57600080fd5b50565b600081359050610be081610bba565b92915050565b60008060008060008060c08789031215610c0357610c02610a28565b5b6000610c1189828a01610a53565b965050602087013567ffffffffffffffff811115610c3257610c31610a2d565b5b610c3e89828a01610b80565b955050604087013567ffffffffffffffff811115610c5f57610c5e610a2d565b5b610c6b89828a01610b80565b9450506060610c7c89828a01610a53565b9350506080610c8d89828a01610a53565b92505060a0610c9e89828a01610bd1565b9150509295509295509295565b600060208284031215610cc157610cc0610a28565b5b6000610ccf84828501610a53565b91505092915050565b610ce181610a32565b82525050565b600081519050919050565b600082825260208201905092915050565b60005b83811015610d21578082015181840152602081019050610d06565b60008484015250505050565b6000610d3882610ce7565b610d428185610cf2565b9350610d52818560208601610d03565b610d5b81610a72565b840191505092915050565b610d6f81610bae565b82525050565b600060e082019050610d8a600083018a610cd8565b8181036020830152610d9c8189610d2d565b90508181036040830152610db08188610d2d565b9050610dbf6060830187610cd8565b610dcc6080830186610d66565b610dd960a0830185610cd8565b610de660c0830184610cd8565b98975050505050505050565b600073ffffffffffffffffffffffffffffffffffffffff82169050919050565b6000610e1d82610df2565b9050919050565b610e2d81610e12565b82525050565b6000602082019050610e486000830184610e24565b92915050565b600080600080600080600060e0888a031215610e6d57610e6c610a28565b5b6000610e7b8a828b01610a53565b975050602088013567ffffffffffffffff811115610e9c57610e9b610a2d565b5b610ea88a828b01610b80565b965050604088013567ffffffffffffffff811115610ec957610ec8610a2d565b5b610ed58a828b01610b80565b9550506060610ee68a828b01610a53565b9450506080610ef78a828b01610bd1565b93505060a0610f088a828b01610a53565b92505060c0610f198a828b01610a53565b91505092959891949750929550565b7f6f6e6c7920746865206f776e65722063616e2000000000000000000000000000600082015250565b6000610f5e601383610cf2565b9150610f6982610f28565b602082019050919050565b60006020820190508181036000830152610f8d81610f51565b9050919050565b7f4e487b7100000000000000000000000000000000000000000000000000000000600052602260045260246000fd5b60006002820490506001821680610fdb57607f821691505b602082108103610fee57610fed610f94565b5b50919050565b60008190508160005260206000209050919050565b60006020601f8301049050919050565b600082821b905092915050565b6000600883026110567fffffffffffffffffffffffffffffffffffffffffffffffffffffffffffffffff82611019565b6110608683611019565b95508019841693508086168417925050509392505050565b6000819050919050565b600061109d61109861109384610a32565b611078565b610a32565b9050919050565b6000819050919050565b6110b783611082565b6110cb6110c3826110a4565b848454611026565b825550505050565b600090565b6110e06110d3565b6110eb8184846110ae565b505050565b5b8181101561110f576111046000826110d8565b6001810190506110f1565b5050565b601f8211156111545761112581610ff4565b61112e84611009565b8101602085101561113d578190505b61115161114985611009565b8301826110f0565b50505b505050565b600082821c905092915050565b600061117760001984600802611159565b1980831691505092915050565b60006111908383611166565b9150826002028217905092915050565b6111a982610ce7565b67ffffffffffffffff8111156111c2576111c1610a83565b5b6111cc8254610fc3565b6111d7828285611113565b600060209050601f83116001811461120a57600084156111f8578287015190505b6112028582611184565b86555061126a565b601f19841661121886610ff4565b60005b828110156112405784890151825560018201915060208501945060208101905061121b565b8683101561125d5784890151611259601f891682611166565b8355505b6001600288020188555050505b505050505050565b600060c0820190506112876000830189610cd8565b81810360208301526112998188610d2d565b905081810360408301526112ad8187610d2d565b90506112bc6060830186610cd8565b6112c96080830185610cd8565b6112d660a0830184610d66565b979650505050505050565b7f4e487b7100000000000000000000000000000000000000000000000000000000600052601160045260246000fd5b600061131b82610a32565b915061132683610a32565b925082820390508181111561133e5761133d6112e1565b5b92915050565b60006040820190506113596000830185610cd8565b6113666020830184610cd8565b9392505050565b60006020820190506113826000830184610cd8565b9291505056fea264697066735822122012ad329c7d69d4d32466af676e009935ed43a8739fb4cf628e09e0bf5bf20bfd64736f6c63430008120033",
			"opcodes": "PUSH1 0x80 PUSH1 0x40 MSTORE CALLVALUE DUP1 ISZERO PUSH2 0x10 JUMPI PUSH1 0x0 DUP1 REVERT JUMPDEST POP CALLER PUSH1 0x0 DUP1 PUSH2 0x100 EXP DUP2 SLOAD DUP2 PUSH20 0xFFFFFFFFFFFFFFFFFFFFFFFFFFFFFFFFFFFFFFFF MUL NOT AND SWAP1 DUP4 PUSH20 0xFFFFFFFFFFFFFFFFFFFFFFFFFFFFFFFFFFFFFFFF AND MUL OR SWAP1 SSTORE POP PUSH2 0x13BE DUP1 PUSH2 0x60 PUSH1 0x0 CODECOPY PUSH1 0x0 RETURN INVALID PUSH1 0x80 PUSH1 0x40 MSTORE PUSH1 0x4 CALLDATASIZE LT PUSH2 0x74 JUMPI PUSH1 0x0 CALLDATALOAD PUSH1 0xE0 SHR DUP1 PUSH4 0x8642269E GT PUSH2 0x4E JUMPI DUP1 PUSH4 0x8642269E EQ PUSH2 0xF6 JUMPI DUP1 PUSH4 0x8DA5CB5B EQ PUSH2 0x112 JUMPI DUP1 PUSH4 0xDAB51026 EQ PUSH2 0x13D JUMPI DUP1 PUSH4 0xED90C7B7 EQ PUSH2 0x166 JUMPI PUSH2 0x7B JUMP JUMPDEST DUP1 PUSH4 0x235A1155 EQ PUSH2 0x80 JUMPI DUP1 PUSH4 0x3AAA74B2 EQ PUSH2 0xA9 JUMPI DUP1 PUSH4 0x7ACC0B20 EQ PUSH2 0xB3 JUMPI PUSH2 0x7B JUMP JUMPDEST CALLDATASIZE PUSH2 0x7B JUMPI STOP JUMPDEST PUSH1 0x0 DUP1 REVERT JUMPDEST CALLVALUE DUP1 ISZERO PUSH2 0x8C JUMPI PUSH1 0x0 DUP1 REVERT JUMPDEST POP PUSH2 0xA7 PUSH1 0x4 DUP1 CALLDATASIZE SUB DUP2 ADD SWAP1 PUSH2 0xA2 SWAP2 SWAP1 PUSH2 0xBE6 JUMP JUMPDEST PUSH2 0x18F JUMP JUMPDEST STOP JUMPDEST PUSH2 0xB1 PUSH2 0x2E3 JUMP JUMPDEST STOP JUMPDEST CALLVALUE DUP1 ISZERO PUSH2 0xBF JUMPI PUSH1 0x0 DUP1 REVERT JUMPDEST POP PUSH2 0xDA PUSH1 0x4 DUP1 CALLDATASIZE SUB DUP2 ADD SWAP1 PUSH2 0xD5 SWAP2 SWAP1 PUSH2 0xCAB JUMP JUMPDEST PUSH2 0x343 JUMP JUMPDEST PUSH1 0x40 MLOAD PUSH2 0xED SWAP8 SWAP7 SWAP6 SWAP5 SWAP4 SWAP3 SWAP2 SWAP1 PUSH2 0xD75 JUMP JUMPDEST PUSH1 0x40 MLOAD DUP1 SWAP2 SUB SWAP1 RETURN JUMPDEST PUSH2 0x110 PUSH1 0x4 DUP1 CALLDATASIZE SUB DUP2 ADD SWAP1 PUSH2 0x10B SWAP2 SWAP1 PUSH2 0xCAB JUMP JUMPDEST PUSH2 0x4A2 JUMP JUMPDEST STOP JUMPDEST CALLVALUE DUP1 ISZERO PUSH2 0x11E JUMPI PUSH1 0x0 DUP1 REVERT JUMPDEST POP PUSH2 0x127 PUSH2 0x6CC JUMP JUMPDEST PUSH1 0x40 MLOAD PUSH2 0x134 SWAP2 SWAP1 PUSH2 0xE33 JUMP JUMPDEST PUSH1 0x40 MLOAD DUP1 SWAP2 SUB SWAP1 RETURN JUMPDEST CALLVALUE DUP1 ISZERO PUSH2 0x149 JUMPI PUSH1 0x0 DUP1 REVERT JUMPDEST POP PUSH2 0x164 PUSH1 0x4 DUP1 CALLDATASIZE SUB DUP2 ADD SWAP1 PUSH2 0x15F SWAP2 SWAP1 PUSH2 0xE4E JUMP JUMPDEST PUSH2 0x6F0 JUMP JUMPDEST STOP JUMPDEST CALLVALUE DUP1 ISZERO PUSH2 0x172 JUMPI PUSH1 0x0 DUP1 REVERT JUMPDEST POP PUSH2 0x18D PUSH1 0x4 DUP1 CALLDATASIZE SUB DUP2 ADD SWAP1 PUSH2 0x188 SWAP2 SWAP1 PUSH2 0xCAB JUMP JUMPDEST PUSH2 0x88F JUMP JUMPDEST STOP JUMPDEST PUSH1 0x0 DUP1 SLOAD SWAP1 PUSH2 0x100 EXP SWAP1 DIV PUSH20 0xFFFFFFFFFFFFFFFFFFFFFFFFFFFFFFFFFFFFFFFF AND PUSH20 0xFFFFFFFFFFFFFFFFFFFFFFFFFFFFFFFFFFFFFFFF AND CALLER PUSH20 0xFFFFFFFFFFFFFFFFFFFFFFFFFFFFFFFFFFFFFFFF AND EQ PUSH2 0x21D JUMPI PUSH1 0x40 MLOAD PUSH32 0x8C379A000000000000000000000000000000000000000000000000000000000 DUP2 MSTORE PUSH1 0x4 ADD PUSH2 0x214 SWAP1 PUSH2 0xF74 JUMP JUMPDEST PUSH1 0x40 MLOAD DUP1 SWAP2 SUB SWAP1 REVERT JUMPDEST PUSH1 0x0 PUSH1 0x1 PUSH1 0x0 DUP9 DUP2 MSTORE PUSH1 0x20 ADD SWAP1 DUP2 MSTORE PUSH1 0x20 ADD PUSH1 0x0 KECCAK256 SWAP1 POP DUP6 DUP2 PUSH1 0x1 ADD SWAP1 DUP2 PUSH2 0x245 SWAP2 SWAP1 PUSH2 0x11A0 JUMP JUMPDEST POP DUP5 DUP2 PUSH1 0x2 ADD SWAP1 DUP2 PUSH2 0x257 SWAP2 SWAP1 PUSH2 0x11A0 JUMP JUMPDEST POP DUP4 DUP2 PUSH1 0x3 ADD DUP2 SWAP1 SSTORE POP DUP3 DUP2 PUSH1 0x6 ADD DUP2 SWAP1 SSTORE POP DUP2 DUP2 PUSH1 0x4 ADD PUSH1 0x0 PUSH2 0x100 EXP DUP2 SLOAD DUP2 PUSH1 0xFF MUL NOT AND SWAP1 DUP4 ISZERO ISZERO MUL OR SWAP1 SSTORE POP PUSH1 0x1 PUSH1 0x0 DUP9 DUP2 MSTORE PUSH1 0x20 ADD SWAP1 DUP2 MSTORE PUSH1 0x20 ADD PUSH1 0x0 KECCAK256 POP PUSH31 0x7B02FF315619902246F02CD37ABCD62F9A18C0A187B413D643BE28C24F76C5 DUP8 DUP8 DUP8 DUP8 DUP8 DUP8 PUSH1 0x40 MLOAD PUSH2 0x2D2 SWAP7 SWAP6 SWAP5 SWAP4 SWAP3 SWAP2 SWAP1 PUSH2 0x1272 JUMP JUMPDEST PUSH1 0x40 MLOAD DUP1 SWAP2 SUB SWAP1 LOG1 POP POP POP POP POP POP POP JUMP JUMPDEST PUSH1 0x0 DUP1 SLOAD SWAP1 PUSH2 0x100 EXP SWAP1 DIV PUSH20 0xFFFFFFFFFFFFFFFFFFFFFFFFFFFFFFFFFFFFFFFF AND PUSH20 0xFFFFFFFFFFFFFFFFFFFFFFFFFFFFFFFFFFFFFFFF AND PUSH2 0x8FC SELFBALANCE SWAP1 DUP2 ISZERO MUL SWAP1 PUSH1 0x40 MLOAD PUSH1 0x0 PUSH1 0x40 MLOAD DUP1 DUP4 SUB DUP2 DUP6 DUP9 DUP9 CALL SWAP4 POP POP POP POP PUSH2 0x341 JUMPI PUSH1 0x0 DUP1 REVERT JUMPDEST JUMP JUMPDEST PUSH1 0x1 PUSH1 0x20 MSTORE DUP1 PUSH1 0x0 MSTORE PUSH1 0x40 PUSH1 0x0 KECCAK256 PUSH1 0x0 SWAP2 POP SWAP1 POP DUP1 PUSH1 0x0 ADD SLOAD SWAP1 DUP1 PUSH1 0x1 ADD DUP1 SLOAD PUSH2 0x36C SWAP1 PUSH2 0xFC3 JUMP JUMPDEST DUP1 PUSH1 0x1F ADD PUSH1 0x20 DUP1 SWAP2 DIV MUL PUSH1 0x20 ADD PUSH1 0x40 MLOAD SWAP1 DUP2 ADD PUSH1 0x40 MSTORE DUP1 SWAP3 SWAP2 SWAP1 DUP2 DUP2 MSTORE PUSH1 0x20 ADD DUP3 DUP1 SLOAD PUSH2 0x398 SWAP1 PUSH2 0xFC3 JUMP JUMPDEST DUP1 ISZERO PUSH2 0x3E5 JUMPI DUP1 PUSH1 0x1F LT PUSH2 0x3BA JUMPI PUSH2 0x100 DUP1 DUP4 SLOAD DIV MUL DUP4 MSTORE SWAP2 PUSH1 0x20 ADD SWAP2 PUSH2 0x3E5 JUMP JUMPDEST DUP3 ADD SWAP2 SWAP1 PUSH1 0x0 MSTORE PUSH1 0x20 PUSH1 0x0 KECCAK256 SWAP1 JUMPDEST DUP2 SLOAD DUP2 MSTORE SWAP1 PUSH1 0x1 ADD SWAP1 PUSH1 0x20 ADD DUP1 DUP4 GT PUSH2 0x3C8 JUMPI DUP3 SWAP1 SUB PUSH1 0x1F AND DUP3 ADD SWAP2 JUMPDEST POP POP POP POP POP SWAP1 DUP1 PUSH1 0x2 ADD DUP1 SLOAD PUSH2 0x3FA SWAP1 PUSH2 0xFC3 JUMP JUMPDEST DUP1 PUSH1 0x1F ADD PUSH1 0x20 DUP1 SWAP2 DIV MUL PUSH1 0x20 ADD PUSH1 0x40 MLOAD SWAP1 DUP2 ADD PUSH1 0x40 MSTORE DUP1 SWAP3 SWAP2 SWAP1 DUP2 DUP2 MSTORE PUSH1 0x20 ADD DUP3 DUP1 SLOAD PUSH2 0x426 SWAP1 PUSH2 0xFC3 JUMP JUMPDEST DUP1 ISZERO PUSH2 0x473 JUMPI DUP1 PUSH1 0x1F LT PUSH2 0x448 JUMPI PUSH2 0x100 DUP1 DUP4 SLOAD DIV MUL DUP4 MSTORE SWAP2 PUSH1 0x20 ADD SWAP2 PUSH2 0x473 JUMP JUMPDEST DUP3 ADD SWAP2 SWAP1 PUSH1 0x0 MSTORE PUSH1 0x20 PUSH1 0x0 KECCAK256 SWAP1 JUMPDEST DUP2 SLOAD DUP2 MSTORE SWAP1 PUSH1 0x1 ADD SWAP1 PUSH1 0x20 ADD DUP1 DUP4 GT PUSH2 0x456 JUMPI DUP3 SWAP1 SUB PUSH1 0x1F AND DUP3 ADD SWAP2 JUMPDEST POP POP POP POP POP SWAP1 DUP1 PUSH1 0x3 ADD SLOAD SWAP1 DUP1 PUSH1 0x4 ADD PUSH1 0x0 SWAP1 SLOAD SWAP1 PUSH2 0x100 EXP SWAP1 DIV PUSH1 0xFF AND SWAP1 DUP1 PUSH1 0x5 ADD SLOAD SWAP1 DUP1 PUSH1 0x6 ADD SLOAD SWAP1 POP DUP8 JUMP JUMPDEST PUSH1 0x0 PUSH1 0x1 PUSH1 0x0 DUP4 DUP2 MSTORE PUSH1 0x20 ADD SWAP1 DUP2 MSTORE PUSH1 0x20 ADD PUSH1 0x0 KECCAK256 PUSH1 0x40 MLOAD DUP1 PUSH1 0xE0 ADD PUSH1 0x40 MSTORE SWAP1 DUP2 PUSH1 0x0 DUP3 ADD SLOAD DUP2 MSTORE PUSH1 0x20 ADD PUSH1 0x1 DUP3 ADD DUP1 SLOAD PUSH2 0x4DC SWAP1 PUSH2 0xFC3 JUMP JUMPDEST DUP1 PUSH1 0x1F ADD PUSH1 0x20 DUP1 SWAP2 DIV MUL PUSH1 0x20 ADD PUSH1 0x40 MLOAD SWAP1 DUP2 ADD PUSH1 0x40 MSTORE DUP1 SWAP3 SWAP2 SWAP1 DUP2 DUP2 MSTORE PUSH1 0x20 ADD DUP3 DUP1 SLOAD PUSH2 0x508 SWAP1 PUSH2 0xFC3 JUMP JUMPDEST DUP1 ISZERO PUSH2 0x555 JUMPI DUP1 PUSH1 0x1F LT PUSH2 0x52A JUMPI PUSH2 0x100 DUP1 DUP4 SLOAD DIV MUL DUP4 MSTORE SWAP2 PUSH1 0x20 ADD SWAP2 PUSH2 0x555 JUMP JUMPDEST DUP3 ADD SWAP2 SWAP1 PUSH1 0x0 MSTORE PUSH1 0x20 PUSH1 0x0 KECCAK256 SWAP1 JUMPDEST DUP2 SLOAD DUP2 MSTORE SWAP1 PUSH1 0x1 ADD SWAP1 PUSH1 0x20 ADD DUP1 DUP4 GT PUSH2 0x538 JUMPI DUP3 SWAP1 SUB PUSH1 0x1F AND DUP3 ADD SWAP2 JUMPDEST POP POP POP POP POP DUP2 MSTORE PUSH1 0x20 ADD PUSH1 0x2 DUP3 ADD DUP1 SLOAD PUSH2 0x56E SWAP1 PUSH2 0xFC3 JUMP JUMPDEST DUP1 PUSH1 0x1F ADD PUSH1 0x20 DUP1 SWAP2 DIV MUL PUSH1 0x20 ADD PUSH1 0x40 MLOAD SWAP1 DUP2 ADD PUSH1 0x40 MSTORE DUP1 SWAP3 SWAP2 SWAP1 DUP2 DUP2 MSTORE PUSH1 0x20 ADD DUP3 DUP1 SLOAD PUSH2 0x59A SWAP1 PUSH2 0xFC3 JUMP JUMPDEST DUP1 ISZERO PUSH2 0x5E7 JUMPI DUP1 PUSH1 0x1F LT PUSH2 0x5BC JUMPI PUSH2 0x100 DUP1 DUP4 SLOAD DIV MUL DUP4 MSTORE SWAP2 PUSH1 0x20 ADD SWAP2 PUSH2 0x5E7 JUMP JUMPDEST DUP3 ADD SWAP2 SWAP1 PUSH1 0x0 MSTORE PUSH1 0x20 PUSH1 0x0 KECCAK256 SWAP1 JUMPDEST DUP2 SLOAD DUP2 MSTORE SWAP1 PUSH1 0x1 ADD SWAP1 PUSH1 0x20 ADD DUP1 DUP4 GT PUSH2 0x5CA JUMPI DUP3 SWAP1 SUB PUSH1 0x1F AND DUP3 ADD SWAP2 JUMPDEST POP POP POP POP POP DUP2 MSTORE PUSH1 0x20 ADD PUSH1 0x3 DUP3 ADD SLOAD DUP2 MSTORE PUSH1 0x20 ADD PUSH1 0x4 DUP3 ADD PUSH1 0x0 SWAP1 SLOAD SWAP1 PUSH2 0x100 EXP SWAP1 DIV PUSH1 0xFF AND ISZERO ISZERO ISZERO ISZERO DUP2 MSTORE PUSH1 0x20 ADD PUSH1 0x5 DUP3 ADD SLOAD DUP2 MSTORE PUSH1 0x20 ADD PUSH1 0x6 DUP3 ADD SLOAD DUP2 MSTORE POP POP SWAP1 POP DUP1 PUSH1 0x60 ADD MLOAD CALLVALUE LT ISZERO PUSH2 0x63C JUMPI PUSH1 0x0 DUP1 REVERT JUMPDEST PUSH1 0x0 DUP2 PUSH1 0xC0 ADD MLOAD GT PUSH2 0x64D JUMPI PUSH1 0x0 DUP1 REVERT JUMPDEST PUSH1 0x1 DUP2 PUSH1 0xC0 ADD MLOAD PUSH2 0x65E SWAP2 SWAP1 PUSH2 0x1310 JUMP JUMPDEST PUSH1 0x1 PUSH1 0x0 DUP5 DUP2 MSTORE PUSH1 0x20 ADD SWAP1 DUP2 MSTORE PUSH1 0x20 ADD PUSH1 0x0 KECCAK256 PUSH1 0x6 ADD DUP2 SWAP1 SSTORE POP CALLER PUSH20 0xFFFFFFFFFFFFFFFFFFFFFFFFFFFFFFFFFFFFFFFF AND PUSH32 0xB075EA2EDB1309FD8A95AB954B3DFFF7B7AA4FF252683F730A1EE7BAA387AACF DUP4 CALLVALUE PUSH1 0x40 MLOAD PUSH2 0x6C0 SWAP3 SWAP2 SWAP1 PUSH2 0x1344 JUMP JUMPDEST PUSH1 0x40 MLOAD DUP1 SWAP2 SUB SWAP1 LOG2 POP POP JUMP JUMPDEST PUSH1 0x0 DUP1 SLOAD SWAP1 PUSH2 0x100 EXP SWAP1 DIV PUSH20 0xFFFFFFFFFFFFFFFFFFFFFFFFFFFFFFFFFFFFFFFF AND DUP2 JUMP JUMPDEST PUSH1 0x0 DUP1 SLOAD SWAP1 PUSH2 0x100 EXP SWAP1 DIV PUSH20 0xFFFFFFFFFFFFFFFFFFFFFFFFFFFFFFFFFFFFFFFF AND PUSH20 0xFFFFFFFFFFFFFFFFFFFFFFFFFFFFFFFFFFFFFFFF AND CALLER PUSH20 0xFFFFFFFFFFFFFFFFFFFFFFFFFFFFFFFFFFFFFFFF AND EQ PUSH2 0x77E JUMPI PUSH1 0x40 MLOAD PUSH32 0x8C379A000000000000000000000000000000000000000000000000000000000 DUP2 MSTORE PUSH1 0x4 ADD PUSH2 0x775 SWAP1 PUSH2 0xF74 JUMP JUMPDEST PUSH1 0x40 MLOAD DUP1 SWAP2 SUB SWAP1 REVERT JUMPDEST PUSH1 0x0 PUSH1 0x40 MLOAD DUP1 PUSH1 0xE0 ADD PUSH1 0x40 MSTORE DUP1 DUP10 DUP2 MSTORE PUSH1 0x20 ADD DUP9 DUP2 MSTORE PUSH1 0x20 ADD DUP8 DUP2 MSTORE PUSH1 0x20 ADD DUP7 DUP2 MSTORE PUSH1 0x20 ADD DUP6 ISZERO ISZERO DUP2 MSTORE PUSH1 0x20 ADD DUP5 DUP2 MSTORE PUSH1 0x20 ADD DUP4 DUP2 MSTORE POP SWAP1 POP DUP1 PUSH1 0x1 PUSH1 0x0 DUP11 DUP2 MSTORE PUSH1 0x20 ADD SWAP1 DUP2 MSTORE PUSH1 0x20 ADD PUSH1 0x0 KECCAK256 PUSH1 0x0 DUP3 ADD MLOAD DUP2 PUSH1 0x0 ADD SSTORE PUSH1 0x20 DUP3 ADD MLOAD DUP2 PUSH1 0x1 ADD SWAP1 DUP2 PUSH2 0x7EA SWAP2 SWAP1 PUSH2 0x11A0 JUMP JUMPDEST POP PUSH1 0x40 DUP3 ADD MLOAD DUP2 PUSH1 0x2 ADD SWAP1 DUP2 PUSH2 0x800 SWAP2 SWAP1 PUSH2 0x11A0 JUMP JUMPDEST POP PUSH1 0x60 DUP3 ADD MLOAD DUP2 PUSH1 0x3 ADD SSTORE PUSH1 0x80 DUP3 ADD MLOAD DUP2 PUSH1 0x4 ADD PUSH1 0x0 PUSH2 0x100 EXP DUP2 SLOAD DUP2 PUSH1 0xFF MUL NOT AND SWAP1 DUP4 ISZERO ISZERO MUL OR SWAP1 SSTORE POP PUSH1 0xA0 DUP3 ADD MLOAD DUP2 PUSH1 0x5 ADD SSTORE PUSH1 0xC0 DUP3 ADD MLOAD DUP2 PUSH1 0x6 ADD SSTORE SWAP1 POP POP PUSH32 0x945E9F38DA0962374F833A71DAF9E8ABADEF8BCEAD6F0B8E6F0C31CC7DBD57A2 DUP9 DUP9 DUP9 DUP9 DUP9 DUP9 DUP9 PUSH1 0x40 MLOAD PUSH2 0x87D SWAP8 SWAP7 SWAP6 SWAP5 SWAP4 SWAP3 SWAP2 SWAP1 PUSH2 0xD75 JUMP JUMPDEST PUSH1 0x40 MLOAD DUP1 SWAP2 SUB SWAP1 LOG1 POP POP POP POP POP POP POP POP JUMP JUMPDEST PUSH1 0x0 DUP1 SLOAD SWAP1 PUSH2 0x100 EXP SWAP1 DIV PUSH20 0xFFFFFFFFFFFFFFFFFFFFFFFFFFFFFFFFFFFFFFFF AND PUSH20 0xFFFFFFFFFFFFFFFFFFFFFFFFFFFFFFFFFFFFFFFF AND CALLER PUSH20 0xFFFFFFFFFFFFFFFFFFFFFFFFFFFFFFFFFFFFFFFF AND EQ PUSH2 0x91D JUMPI PUSH1 0x40 MLOAD PUSH32 0x8C379A000000000000000000000000000000000000000000000000000000000 DUP2 MSTORE PUSH1 0x4 ADD PUSH2 0x914 SWAP1 PUSH2 0xF74 JUMP JUMPDEST PUSH1 0x40 MLOAD DUP1 SWAP2 SUB SWAP1 REVERT JUMPDEST PUSH1 0x1 PUSH1 0x0 DUP3 DUP2 MSTORE PUSH1 0x20 ADD SWAP1 DUP2 MSTORE PUSH1 0x20 ADD PUSH1 0x0 KECCAK256 PUSH1 0x0 DUP1 DUP3 ADD PUSH1 0x0 SWAP1 SSTORE PUSH1 0x1 DUP3 ADD PUSH1 0x0 PUSH2 0x949 SWAP2 SWAP1 PUSH2 0x9C1 JUMP JUMPDEST PUSH1 0x2 DUP3 ADD PUSH1 0x0 PUSH2 0x959 SWAP2 SWAP1 PUSH2 0x9C1 JUMP JUMPDEST PUSH1 0x3 DUP3 ADD PUSH1 0x0 SWAP1 SSTORE PUSH1 0x4 DUP3 ADD PUSH1 0x0 PUSH2 0x100 EXP DUP2 SLOAD SWAP1 PUSH1 0xFF MUL NOT AND SWAP1 SSTORE PUSH1 0x5 DUP3 ADD PUSH1 0x0 SWAP1 SSTORE PUSH1 0x6 DUP3 ADD PUSH1 0x0 SWAP1 SSTORE POP POP PUSH32 0xB9CF51DE0E349FE22CDF4BE36898CCD86F49C14F931AAF57F3C2D617821D1118 DUP2 PUSH1 0x40 MLOAD PUSH2 0x9B6 SWAP2 SWAP1 PUSH2 0x136D JUMP JUMPDEST PUSH1 0x40 MLOAD DUP1 SWAP2 SUB SWAP1 LOG1 POP JUMP JUMPDEST POP DUP1 SLOAD PUSH2 0x9CD SWAP1 PUSH2 0xFC3 JUMP JUMPDEST PUSH1 0x0 DUP3 SSTORE DUP1 PUSH1 0x1F LT PUSH2 0x9DF JUMPI POP PUSH2 0x9FE JUMP JUMPDEST PUSH1 0x1F ADD PUSH1 0x20 SWAP1 DIV SWAP1 PUSH1 0x0 MSTORE PUSH1 0x20 PUSH1 0x0 KECCAK256 SWAP1 DUP2 ADD SWAP1 PUSH2 0x9FD SWAP2 SWAP1 PUSH2 0xA01 JUMP JUMPDEST JUMPDEST POP JUMP JUMPDEST JUMPDEST DUP1 DUP3 GT ISZERO PUSH2 0xA1A JUMPI PUSH1 0x0 DUP2 PUSH1 0x0 SWAP1 SSTORE POP PUSH1 0x1 ADD PUSH2 0xA02 JUMP JUMPDEST POP SWAP1 JUMP JUMPDEST PUSH1 0x0 PUSH1 0x40 MLOAD SWAP1 POP SWAP1 JUMP JUMPDEST PUSH1 0x0 DUP1 REVERT JUMPDEST PUSH1 0x0 DUP1 REVERT JUMPDEST PUSH1 0x0 DUP2 SWAP1 POP SWAP2 SWAP1 POP JUMP JUMPDEST PUSH2 0xA45 DUP2 PUSH2 0xA32 JUMP JUMPDEST DUP2 EQ PUSH2 0xA50 JUMPI PUSH1 0x0 DUP1 REVERT JUMPDEST POP JUMP JUMPDEST PUSH1 0x0 DUP2 CALLDATALOAD SWAP1 POP PUSH2 0xA62 DUP2 PUSH2 0xA3C JUMP JUMPDEST SWAP3 SWAP2 POP POP JUMP JUMPDEST PUSH1 0x0 DUP1 REVERT JUMPDEST PUSH1 0x0 DUP1 REVERT JUMPDEST PUSH1 0x0 PUSH1 0x1F NOT PUSH1 0x1F DUP4 ADD AND SWAP1 POP SWAP2 SWAP1 POP JUMP JUMPDEST PUSH32 0x4E487B7100000000000000000000000000000000000000000000000000000000 PUSH1 0x0 MSTORE PUSH1 0x41 PUSH1 0x4 MSTORE PUSH1 0x24 PUSH1 0x0 REVERT JUMPDEST PUSH2 0xABB DUP3 PUSH2 0xA72 JUMP JUMPDEST DUP2 ADD DUP2 DUP2 LT PUSH8 0xFFFFFFFFFFFFFFFF DUP3 GT OR ISZERO PUSH2 0xADA JUMPI PUSH2 0xAD9 PUSH2 0xA83 JUMP JUMPDEST JUMPDEST DUP1 PUSH1 0x40 MSTORE POP POP POP JUMP JUMPDEST PUSH1 0x0 PUSH2 0xAED PUSH2 0xA1E JUMP JUMPDEST SWAP1 POP PUSH2 0xAF9 DUP3 DUP3 PUSH2 0xAB2 JUMP JUMPDEST SWAP2 SWAP1 POP JUMP JUMPDEST PUSH1 0x0 PUSH8 0xFFFFFFFFFFFFFFFF DUP3 GT ISZERO PUSH2 0xB19 JUMPI PUSH2 0xB18 PUSH2 0xA83 JUMP JUMPDEST JUMPDEST PUSH2 0xB22 DUP3 PUSH2 0xA72 JUMP JUMPDEST SWAP1 POP PUSH1 0x20 DUP2 ADD SWAP1 POP SWAP2 SWAP1 POP JUMP JUMPDEST DUP3 DUP2 DUP4 CALLDATACOPY PUSH1 0x0 DUP4 DUP4 ADD MSTORE POP POP POP JUMP JUMPDEST PUSH1 0x0 PUSH2 0xB51 PUSH2 0xB4C DUP5 PUSH2 0xAFE JUMP JUMPDEST PUSH2 0xAE3 JUMP JUMPDEST SWAP1 POP DUP3 DUP2 MSTORE PUSH1 0x20 DUP2 ADD DUP5 DUP5 DUP5 ADD GT ISZERO PUSH2 0xB6D JUMPI PUSH2 0xB6C PUSH2 0xA6D JUMP JUMPDEST JUMPDEST PUSH2 0xB78 DUP5 DUP3 DUP6 PUSH2 0xB2F JUMP JUMPDEST POP SWAP4 SWAP3 POP POP POP JUMP JUMPDEST PUSH1 0x0 DUP3 PUSH1 0x1F DUP4 ADD SLT PUSH2 0xB95 JUMPI PUSH2 0xB94 PUSH2 0xA68 JUMP JUMPDEST JUMPDEST DUP2 CALLDATALOAD PUSH2 0xBA5 DUP5 DUP3 PUSH1 0x20 DUP7 ADD PUSH2 0xB3E JUMP JUMPDEST SWAP2 POP POP SWAP3 SWAP2 POP POP JUMP JUMPDEST PUSH1 0x0 DUP2 ISZERO ISZERO SWAP1 POP SWAP2 SWAP1 POP JUMP JUMPDEST PUSH2 0xBC3 DUP2 PUSH2 0xBAE JUMP JUMPDEST DUP2 EQ PUSH2 0xBCE JUMPI PUSH1 0x0 DUP1 REVERT JUMPDEST POP JUMP JUMPDEST PUSH1 0x0 DUP2 CALLDATALOAD SWAP1 POP PUSH2 0xBE0 DUP2 PUSH2 0xBBA JUMP JUMPDEST SWAP3 SWAP2 POP POP JUMP JUMPDEST PUSH1 0x0 DUP1 PUSH1 0x0 DUP1 PUSH1 0x0 DUP1 PUSH1 0xC0 DUP8 DUP10 SUB SLT ISZERO PUSH2 0xC03 JUMPI PUSH2 0xC02 PUSH2 0xA28 JUMP JUMPDEST JUMPDEST PUSH1 0x0 PUSH2 0xC11 DUP10 DUP3 DUP11 ADD PUSH2 0xA53 JUMP JUMPDEST SWAP7 POP POP PUSH1 0x20 DUP8 ADD CALLDATALOAD PUSH8 0xFFFFFFFFFFFFFFFF DUP2 GT ISZERO PUSH2 0xC32 JUMPI PUSH2 0xC31 PUSH2 0xA2D JUMP JUMPDEST JUMPDEST PUSH2 0xC3E DUP10 DUP3 DUP11 ADD PUSH2 0xB80 JUMP JUMPDEST SWAP6 POP POP PUSH1 0x40 DUP8 ADD CALLDATALOAD PUSH8 0xFFFFFFFFFFFFFFFF DUP2 GT ISZERO PUSH2 0xC5F JUMPI PUSH2 0xC5E PUSH2 0xA2D JUMP JUMPDEST JUMPDEST PUSH2 0xC6B DUP10 DUP3 DUP11 ADD PUSH2 0xB80 JUMP JUMPDEST SWAP5 POP POP PUSH1 0x60 PUSH2 0xC7C DUP10 DUP3 DUP11 ADD PUSH2 0xA53 JUMP JUMPDEST SWAP4 POP POP PUSH1 0x80 PUSH2 0xC8D DUP10 DUP3 DUP11 ADD PUSH2 0xA53 JUMP JUMPDEST SWAP3 POP POP PUSH1 0xA0 PUSH2 0xC9E DUP10 DUP3 DUP11 ADD PUSH2 0xBD1 JUMP JUMPDEST SWAP2 POP POP SWAP3 SWAP6 POP SWAP3 SWAP6 POP SWAP3 SWAP6 JUMP JUMPDEST PUSH1 0x0 PUSH1 0x20 DUP3 DUP5 SUB SLT ISZERO PUSH2 0xCC1 JUMPI PUSH2 0xCC0 PUSH2 0xA28 JUMP JUMPDEST JUMPDEST PUSH1 0x0 PUSH2 0xCCF DUP5 DUP3 DUP6 ADD PUSH2 0xA53 JUMP JUMPDEST SWAP2 POP POP SWAP3 SWAP2 POP POP JUMP JUMPDEST PUSH2 0xCE1 DUP2 PUSH2 0xA32 JUMP JUMPDEST DUP3 MSTORE POP POP JUMP JUMPDEST PUSH1 0x0 DUP2 MLOAD SWAP1 POP SWAP2 SWAP1 POP JUMP JUMPDEST PUSH1 0x0 DUP3 DUP3 MSTORE PUSH1 0x20 DUP3 ADD SWAP1 POP SWAP3 SWAP2 POP POP JUMP JUMPDEST PUSH1 0x0 JUMPDEST DUP4 DUP2 LT ISZERO PUSH2 0xD21 JUMPI DUP1 DUP3 ADD MLOAD DUP2 DUP5 ADD MSTORE PUSH1 0x20 DUP2 ADD SWAP1 POP PUSH2 0xD06 JUMP JUMPDEST PUSH1 0x0 DUP5 DUP5 ADD MSTORE POP POP POP POP JUMP JUMPDEST PUSH1 0x0 PUSH2 0xD38 DUP3 PUSH2 0xCE7 JUMP JUMPDEST PUSH2 0xD42 DUP2 DUP6 PUSH2 0xCF2 JUMP JUMPDEST SWAP4 POP PUSH2 0xD52 DUP2 DUP6 PUSH1 0x20 DUP7 ADD PUSH2 0xD03 JUMP JUMPDEST PUSH2 0xD5B DUP2 PUSH2 0xA72 JUMP JUMPDEST DUP5 ADD SWAP2 POP POP SWAP3 SWAP2 POP POP JUMP JUMPDEST PUSH2 0xD6F DUP2 PUSH2 0xBAE JUMP JUMPDEST DUP3 MSTORE POP POP JUMP JUMPDEST PUSH1 0x0 PUSH1 0xE0 DUP3 ADD SWAP1 POP PUSH2 0xD8A PUSH1 0x0 DUP4 ADD DUP11 PUSH2 0xCD8 JUMP JUMPDEST DUP2 DUP2 SUB PUSH1 0x20 DUP4 ADD MSTORE PUSH2 0xD9C DUP2 DUP10 PUSH2 0xD2D JUMP JUMPDEST SWAP1 POP DUP2 DUP2 SUB PUSH1 0x40 DUP4 ADD MSTORE PUSH2 0xDB0 DUP2 DUP9 PUSH2 0xD2D JUMP JUMPDEST SWAP1 POP PUSH2 0xDBF PUSH1 0x60 DUP4 ADD DUP8 PUSH2 0xCD8 JUMP JUMPDEST PUSH2 0xDCC PUSH1 0x80 DUP4 ADD DUP7 PUSH2 0xD66 JUMP JUMPDEST PUSH2 0xDD9 PUSH1 0xA0 DUP4 ADD DUP6 PUSH2 0xCD8 JUMP JUMPDEST PUSH2 0xDE6 PUSH1 0xC0 DUP4 ADD DUP5 PUSH2 0xCD8 JUMP JUMPDEST SWAP9 SWAP8 POP POP POP POP POP POP POP POP JUMP JUMPDEST PUSH1 0x0 PUSH20 0xFFFFFFFFFFFFFFFFFFFFFFFFFFFFFFFFFFFFFFFF DUP3 AND SWAP1 POP SWAP2 SWAP1 POP JUMP JUMPDEST PUSH1 0x0 PUSH2 0xE1D DUP3 PUSH2 0xDF2 JUMP JUMPDEST SWAP1 POP SWAP2 SWAP1 POP JUMP JUMPDEST PUSH2 0xE2D DUP2 PUSH2 0xE12 JUMP JUMPDEST DUP3 MSTORE POP POP JUMP JUMPDEST PUSH1 0x0 PUSH1 0x20 DUP3 ADD SWAP1 POP PUSH2 0xE48 PUSH1 0x0 DUP4 ADD DUP5 PUSH2 0xE24 JUMP JUMPDEST SWAP3 SWAP2 POP POP JUMP JUMPDEST PUSH1 0x0 DUP1 PUSH1 0x0 DUP1 PUSH1 0x0 DUP1 PUSH1 0x0 PUSH1 0xE0 DUP9 DUP11 SUB SLT ISZERO PUSH2 0xE6D JUMPI PUSH2 0xE6C PUSH2 0xA28 JUMP JUMPDEST JUMPDEST PUSH1 0x0 PUSH2 0xE7B DUP11 DUP3 DUP12 ADD PUSH2 0xA53 JUMP JUMPDEST SWAP8 POP POP PUSH1 0x20 DUP9 ADD CALLDATALOAD PUSH8 0xFFFFFFFFFFFFFFFF DUP2 GT ISZERO PUSH2 0xE9C JUMPI PUSH2 0xE9B PUSH2 0xA2D JUMP JUMPDEST JUMPDEST PUSH2 0xEA8 DUP11 DUP3 DUP12 ADD PUSH2 0xB80 JUMP JUMPDEST SWAP7 POP POP PUSH1 0x40 DUP9 ADD CALLDATALOAD PUSH8 0xFFFFFFFFFFFFFFFF DUP2 GT ISZERO PUSH2 0xEC9 JUMPI PUSH2 0xEC8 PUSH2 0xA2D JUMP JUMPDEST JUMPDEST PUSH2 0xED5 DUP11 DUP3 DUP12 ADD PUSH2 0xB80 JUMP JUMPDEST SWAP6 POP POP PUSH1 0x60 PUSH2 0xEE6 DUP11 DUP3 DUP12 ADD PUSH2 0xA53 JUMP JUMPDEST SWAP5 POP POP PUSH1 0x80 PUSH2 0xEF7 DUP11 DUP3 DUP12 ADD PUSH2 0xBD1 JUMP JUMPDEST SWAP4 POP POP PUSH1 0xA0 PUSH2 0xF08 DUP11 DUP3 DUP12 ADD PUSH2 0xA53 JUMP JUMPDEST SWAP3 POP POP PUSH1 0xC0 PUSH2 0xF19 DUP11 DUP3 DUP12 ADD PUSH2 0xA53 JUMP JUMPDEST SWAP2 POP POP SWAP3 SWAP6 SWAP9 SWAP2 SWAP5 SWAP8 POP SWAP3 SWAP6 POP JUMP JUMPDEST PUSH32 0x6F6E6C7920746865206F776E65722063616E2000000000000000000000000000 PUSH1 0x0 DUP3 ADD MSTORE POP JUMP JUMPDEST PUSH1 0x0 PUSH2 0xF5E PUSH1 0x13 DUP4 PUSH2 0xCF2 JUMP JUMPDEST SWAP2 POP PUSH2 0xF69 DUP3 PUSH2 0xF28 JUMP JUMPDEST PUSH1 0x20 DUP3 ADD SWAP1 POP SWAP2 SWAP1 POP JUMP JUMPDEST PUSH1 0x0 PUSH1 0x20 DUP3 ADD SWAP1 POP DUP2 DUP2 SUB PUSH1 0x0 DUP4 ADD MSTORE PUSH2 0xF8D DUP2 PUSH2 0xF51 JUMP JUMPDEST SWAP1 POP SWAP2 SWAP1 POP JUMP JUMPDEST PUSH32 0x4E487B7100000000000000000000000000000000000000000000000000000000 PUSH1 0x0 MSTORE PUSH1 0x22 PUSH1 0x4 MSTORE PUSH1 0x24 PUSH1 0x0 REVERT JUMPDEST PUSH1 0x0 PUSH1 0x2 DUP3 DIV SWAP1 POP PUSH1 0x1 DUP3 AND DUP1 PUSH2 0xFDB JUMPI PUSH1 0x7F DUP3 AND SWAP2 POP JUMPDEST PUSH1 0x20 DUP3 LT DUP2 SUB PUSH2 0xFEE JUMPI PUSH2 0xFED PUSH2 0xF94 JUMP JUMPDEST JUMPDEST POP SWAP2 SWAP1 POP JUMP JUMPDEST PUSH1 0x0 DUP2 SWAP1 POP DUP2 PUSH1 0x0 MSTORE PUSH1 0x20 PUSH1 0x0 KECCAK256 SWAP1 POP SWAP2 SWAP1 POP JUMP JUMPDEST PUSH1 0x0 PUSH1 0x20 PUSH1 0x1F DUP4 ADD DIV SWAP1 POP SWAP2 SWAP1 POP JUMP JUMPDEST PUSH1 0x0 DUP3 DUP3 SHL SWAP1 POP SWAP3 SWAP2 POP POP JUMP JUMPDEST PUSH1 0x0 PUSH1 0x8 DUP4 MUL PUSH2 0x1056 PUSH32 0xFFFFFFFFFFFFFFFFFFFFFFFFFFFFFFFFFFFFFFFFFFFFFFFFFFFFFFFFFFFFFFFF DUP3 PUSH2 0x1019 JUMP JUMPDEST PUSH2 0x1060 DUP7 DUP4 PUSH2 0x1019 JUMP JUMPDEST SWAP6 POP DUP1 NOT DUP5 AND SWAP4 POP DUP1 DUP7 AND DUP5 OR SWAP3 POP POP POP SWAP4 SWAP3 POP POP POP JUMP JUMPDEST PUSH1 0x0 DUP2 SWAP1 POP SWAP2 SWAP1 POP JUMP JUMPDEST PUSH1 0x0 PUSH2 0x109D PUSH2 0x1098 PUSH2 0x1093 DUP5 PUSH2 0xA32 JUMP JUMPDEST PUSH2 0x1078 JUMP JUMPDEST PUSH2 0xA32 JUMP JUMPDEST SWAP1 POP SWAP2 SWAP1 POP JUMP JUMPDEST PUSH1 0x0 DUP2 SWAP1 POP SWAP2 SWAP1 POP JUMP JUMPDEST PUSH2 0x10B7 DUP4 PUSH2 0x1082 JUMP JUMPDEST PUSH2 0x10CB PUSH2 0x10C3 DUP3 PUSH2 0x10A4 JUMP JUMPDEST DUP5 DUP5 SLOAD PUSH2 0x1026 JUMP JUMPDEST DUP3 SSTORE POP POP POP POP JUMP JUMPDEST PUSH1 0x0 SWAP1 JUMP JUMPDEST PUSH2 0x10E0 PUSH2 0x10D3 JUMP JUMPDEST PUSH2 0x10EB DUP2 DUP5 DUP5 PUSH2 0x10AE JUMP JUMPDEST POP POP POP JUMP JUMPDEST JUMPDEST DUP2 DUP2 LT ISZERO PUSH2 0x110F JUMPI PUSH2 0x1104 PUSH1 0x0 DUP3 PUSH2 0x10D8 JUMP JUMPDEST PUSH1 0x1 DUP2 ADD SWAP1 POP PUSH2 0x10F1 JUMP JUMPDEST POP POP JUMP JUMPDEST PUSH1 0x1F DUP3 GT ISZERO PUSH2 0x1154 JUMPI PUSH2 0x1125 DUP2 PUSH2 0xFF4 JUMP JUMPDEST PUSH2 0x112E DUP5 PUSH2 0x1009 JUMP JUMPDEST DUP2 ADD PUSH1 0x20 DUP6 LT ISZERO PUSH2 0x113D JUMPI DUP2 SWAP1 POP JUMPDEST PUSH2 0x1151 PUSH2 0x1149 DUP6 PUSH2 0x1009 JUMP JUMPDEST DUP4 ADD DUP3 PUSH2 0x10F0 JUMP JUMPDEST POP POP JUMPDEST POP POP POP JUMP JUMPDEST PUSH1 0x0 DUP3 DUP3 SHR SWAP1 POP SWAP3 SWAP2 POP POP JUMP JUMPDEST PUSH1 0x0 PUSH2 0x1177 PUSH1 0x0 NOT DUP5 PUSH1 0x8 MUL PUSH2 0x1159 JUMP JUMPDEST NOT DUP1 DUP4 AND SWAP2 POP POP SWAP3 SWAP2 POP POP JUMP JUMPDEST PUSH1 0x0 PUSH2 0x1190 DUP4 DUP4 PUSH2 0x1166 JUMP JUMPDEST SWAP2 POP DUP3 PUSH1 0x2 MUL DUP3 OR SWAP1 POP SWAP3 SWAP2 POP POP JUMP JUMPDEST PUSH2 0x11A9 DUP3 PUSH2 0xCE7 JUMP JUMPDEST PUSH8 0xFFFFFFFFFFFFFFFF DUP2 GT ISZERO PUSH2 0x11C2 JUMPI PUSH2 0x11C1 PUSH2 0xA83 JUMP JUMPDEST JUMPDEST PUSH2 0x11CC DUP3 SLOAD PUSH2 0xFC3 JUMP JUMPDEST PUSH2 0x11D7 DUP3 DUP3 DUP6 PUSH2 0x1113 JUMP JUMPDEST PUSH1 0x0 PUSH1 0x20 SWAP1 POP PUSH1 0x1F DUP4 GT PUSH1 0x1 DUP2 EQ PUSH2 0x120A JUMPI PUSH1 0x0 DUP5 ISZERO PUSH2 0x11F8 JUMPI DUP3 DUP8 ADD MLOAD SWAP1 POP JUMPDEST PUSH2 0x1202 DUP6 DUP3 PUSH2 0x1184 JUMP JUMPDEST DUP7 SSTORE POP PUSH2 0x126A JUMP JUMPDEST PUSH1 0x1F NOT DUP5 AND PUSH2 0x1218 DUP7 PUSH2 0xFF4 JUMP JUMPDEST PUSH1 0x0 JUMPDEST DUP3 DUP2 LT ISZERO PUSH2 0x1240 JUMPI DUP5 DUP10 ADD MLOAD DUP3 SSTORE PUSH1 0x1 DUP3 ADD SWAP2 POP PUSH1 0x20 DUP6 ADD SWAP5 POP PUSH1 0x20 DUP2 ADD SWAP1 POP PUSH2 0x121B JUMP JUMPDEST DUP7 DUP4 LT ISZERO PUSH2 0x125D JUMPI DUP5 DUP10 ADD MLOAD PUSH2 0x1259 PUSH1 0x1F DUP10 AND DUP3 PUSH2 0x1166 JUMP JUMPDEST DUP4 SSTORE POP JUMPDEST PUSH1 0x1 PUSH1 0x2 DUP9 MUL ADD DUP9 SSTORE POP POP POP JUMPDEST POP POP POP POP POP POP JUMP JUMPDEST PUSH1 0x0 PUSH1 0xC0 DUP3 ADD SWAP1 POP PUSH2 0x1287 PUSH1 0x0 DUP4 ADD DUP10 PUSH2 0xCD8 JUMP JUMPDEST DUP2 DUP2 SUB PUSH1 0x20 DUP4 ADD MSTORE PUSH2 0x1299 DUP2 DUP9 PUSH2 0xD2D JUMP JUMPDEST SWAP1 POP DUP2 DUP2 SUB PUSH1 0x40 DUP4 ADD MSTORE PUSH2 0x12AD DUP2 DUP8 PUSH2 0xD2D JUMP JUMPDEST SWAP1 POP PUSH2 0x12BC PUSH1 0x60 DUP4 ADD DUP7 PUSH2 0xCD8 JUMP JUMPDEST PUSH2 0x12C9 PUSH1 0x80 DUP4 ADD DUP6 PUSH2 0xCD8 JUMP JUMPDEST PUSH2 0x12D6 PUSH1 0xA0 DUP4 ADD DUP5 PUSH2 0xD66 JUMP JUMPDEST SWAP8 SWAP7 POP POP POP POP POP POP POP JUMP JUMPDEST PUSH32 0x4E487B7100000000000000000000000000000000000000000000000000000000 PUSH1 0x0 MSTORE PUSH1 0x11 PUSH1 0x4 MSTORE PUSH1 0x24 PUSH1 0x0 REVERT JUMPDEST PUSH1 0x0 PUSH2 0x131B DUP3 PUSH2 0xA32 JUMP JUMPDEST SWAP2 POP PUSH2 0x1326 DUP4 PUSH2 0xA32 JUMP JUMPDEST SWAP3 POP DUP3 DUP3 SUB SWAP1 POP DUP2 DUP2 GT ISZERO PUSH2 0x133E JUMPI PUSH2 0x133D PUSH2 0x12E1 JUMP JUMPDEST JUMPDEST SWAP3 SWAP2 POP POP JUMP JUMPDEST PUSH1 0x0 PUSH1 0x40 DUP3 ADD SWAP1 POP PUSH2 0x1359 PUSH1 0x0 DUP4 ADD DUP6 PUSH2 0xCD8 JUMP JUMPDEST PUSH2 0x1366 PUSH1 0x20 DUP4 ADD DUP5 PUSH2 0xCD8 JUMP JUMPDEST SWAP4 SWAP3 POP POP POP JUMP JUMPDEST PUSH1 0x0 PUSH1 0x20 DUP3 ADD SWAP1 POP PUSH2 0x1382 PUSH1 0x0 DUP4 ADD DUP5 PUSH2 0xCD8 JUMP JUMPDEST SWAP3 SWAP2 POP POP JUMP INVALID LOG2 PUSH5 0x6970667358 0x22 SLT KECCAK256 SLT 0xAD ORIGIN SWAP13 PUSH30 0x69D4D32466AF676E009935ED43A8739FB4CF628E09E0BF5BF20BFD64736F PUSH13 0x63430008120033000000000000 "
		},
		"gasEstimates": {
			"creation": {
				"codeDepositCost": "1010800",
				"executionCost": "25313",
				"totalCost": "1036113"
			},
			"external": {
				"addProduct(uint256,string,string,uint256,bool,uint256,uint256)": "infinite",
				"buyProduct(uint256)": "infinite",
				"deleteProduct(uint256)": "infinite",
				"owner()": "2533",
				"products(uint256)": "infinite",
				"setProduct(uint256,string,string,uint256,uint256,bool)": "infinite",
				"withdrawTips()": "infinite"
			}
		},
		"methodIdentifiers": {
			"addProduct(uint256,string,string,uint256,bool,uint256,uint256)": "dab51026",
			"buyProduct(uint256)": "8642269e",
			"deleteProduct(uint256)": "ed90c7b7",
			"owner()": "8da5cb5b",
			"products(uint256)": "7acc0b20",
			"setProduct(uint256,string,string,uint256,uint256,bool)": "235a1155",
			"withdrawTips()": "3aaa74b2"
		}
	},
	"abi": [
		{
			"inputs": [],
			"stateMutability": "nonpayable",
			"type": "constructor"
		},
		{
			"anonymous": false,
			"inputs": [
				{
					"indexed": false,
					"internalType": "uint256",
					"name": "_productId",
					"type": "uint256"
				},
				{
					"indexed": false,
					"internalType": "string",
					"name": "_name",
					"type": "string"
				},
				{
					"indexed": false,
					"internalType": "string",
					"name": "_description",
					"type": "string"
				},
				{
					"indexed": false,
					"internalType": "uint256",
					"name": "_price",
					"type": "uint256"
				},
				{
					"indexed": false,
					"internalType": "bool",
					"name": "_isApproved",
					"type": "bool"
				},
				{
					"indexed": false,
					"internalType": "uint256",
					"name": "_categoryId",
					"type": "uint256"
				},
				{
					"indexed": false,
					"internalType": "uint256",
					"name": "_status",
					"type": "uint256"
				}
			],
			"name": "productAdded",
			"type": "event"
		},
		{
			"anonymous": false,
			"inputs": [
				{
					"indexed": false,
					"internalType": "uint256",
					"name": "_productId",
					"type": "uint256"
				}
			],
			"name": "productDeleted",
			"type": "event"
		},
		{
			"anonymous": false,
			"inputs": [
				{
					"indexed": true,
					"internalType": "address",
					"name": "_from",
					"type": "address"
				},
				{
					"indexed": false,
					"internalType": "uint256",
					"name": "_productId",
					"type": "uint256"
				},
				{
					"indexed": false,
					"internalType": "uint256",
					"name": "_value",
					"type": "uint256"
				}
			],
			"name": "productSold",
			"type": "event"
		},
		{
			"anonymous": false,
			"inputs": [
				{
					"indexed": false,
					"internalType": "uint256",
					"name": "_productId",
					"type": "uint256"
				},
				{
					"indexed": false,
					"internalType": "string",
					"name": "_name",
					"type": "string"
				},
				{
					"indexed": false,
					"internalType": "string",
					"name": "_description",
					"type": "string"
				},
				{
					"indexed": false,
					"internalType": "uint256",
					"name": "_price",
					"type": "uint256"
				},
				{
					"indexed": false,
					"internalType": "uint256",
					"name": "_status",
					"type": "uint256"
				},
				{
					"indexed": false,
					"internalType": "bool",
					"name": "_isApproved",
					"type": "bool"
				}
			],
			"name": "productUpdated",
			"type": "event"
		},
		{
			"inputs": [
				{
					"internalType": "uint256",
					"name": "_productId",
					"type": "uint256"
				},
				{
					"internalType": "string",
					"name": "_name",
					"type": "string"
				},
				{
					"internalType": "string",
					"name": "_description",
					"type": "string"
				},
				{
					"internalType": "uint256",
					"name": "_price",
					"type": "uint256"
				},
				{
					"internalType": "bool",
					"name": "_isApproved",
					"type": "bool"
				},
				{
					"internalType": "uint256",
					"name": "_categoryId",
					"type": "uint256"
				},
				{
					"internalType": "uint256",
					"name": "_status",
					"type": "uint256"
				}
			],
			"name": "addProduct",
			"outputs": [],
			"stateMutability": "nonpayable",
			"type": "function"
		},
		{
			"inputs": [
				{
					"internalType": "uint256",
					"name": "_productId",
					"type": "uint256"
				}
			],
			"name": "buyProduct",
			"outputs": [],
			"stateMutability": "payable",
			"type": "function"
		},
		{
			"inputs": [
				{
					"internalType": "uint256",
					"name": "_productId",
					"type": "uint256"
				}
			],
			"name": "deleteProduct",
			"outputs": [],
			"stateMutability": "nonpayable",
			"type": "function"
		},
		{
			"inputs": [],
			"name": "owner",
			"outputs": [
				{
					"internalType": "address payable",
					"name": "",
					"type": "address"
				}
			],
			"stateMutability": "view",
			"type": "function"
		},
		{
			"inputs": [
				{
					"internalType": "uint256",
					"name": "",
					"type": "uint256"
				}
			],
			"name": "products",
			"outputs": [
				{
					"internalType": "uint256",
					"name": "productId",
					"type": "uint256"
				},
				{
					"internalType": "string",
					"name": "name",
					"type": "string"
				},
				{
					"internalType": "string",
					"name": "description",
					"type": "string"
				},
				{
					"internalType": "uint256",
					"name": "price",
					"type": "uint256"
				},
				{
					"internalType": "bool",
					"name": "isApproved",
					"type": "bool"
				},
				{
					"internalType": "uint256",
					"name": "categoryId",
					"type": "uint256"
				},
				{
					"internalType": "uint256",
					"name": "status",
					"type": "uint256"
				}
			],
			"stateMutability": "view",
			"type": "function"
		},
		{
			"inputs": [
				{
					"internalType": "uint256",
					"name": "_productId",
					"type": "uint256"
				},
				{
					"internalType": "string",
					"name": "_name",
					"type": "string"
				},
				{
					"internalType": "string",
					"name": "_description",
					"type": "string"
				},
				{
					"internalType": "uint256",
					"name": "_price",
					"type": "uint256"
				},
				{
					"internalType": "uint256",
					"name": "_status",
					"type": "uint256"
				},
				{
					"internalType": "bool",
					"name": "_isApproved",
					"type": "bool"
				}
			],
			"name": "setProduct",
			"outputs": [],
			"stateMutability": "nonpayable",
			"type": "function"
		},
		{
			"inputs": [],
			"name": "withdrawTips",
			"outputs": [],
			"stateMutability": "payable",
			"type": "function"
		},
		{
			"stateMutability": "payable",
			"type": "receive"
		}
	]
}